{
  "contractName": "CromoMarket",
  "abi": [
    {
      "inputs": [
        {
          "internalType": "address",
          "name": "_yoppenTokenAddress",
          "type": "address"
        }
      ],
      "stateMutability": "nonpayable",
      "type": "constructor"
    },
    {
      "anonymous": false,
      "inputs": [
        {
          "indexed": false,
          "internalType": "uint256",
          "name": "cromoId",
          "type": "uint256"
        },
        {
          "indexed": false,
          "internalType": "address",
          "name": "buyer",
          "type": "address"
        }
      ],
      "name": "CromoPurchased",
      "type": "event"
    },
    {
      "inputs": [
        {
          "internalType": "uint256",
          "name": "",
          "type": "uint256"
        }
      ],
      "name": "cromos",
      "outputs": [
        {
          "internalType": "uint256",
          "name": "id",
          "type": "uint256"
        },
        {
          "internalType": "string",
          "name": "name",
          "type": "string"
        },
        {
          "internalType": "uint256",
          "name": "price",
          "type": "uint256"
        },
        {
          "internalType": "address",
          "name": "owner",
          "type": "address"
        }
      ],
      "stateMutability": "view",
      "type": "function",
      "constant": true
    },
    {
      "inputs": [],
      "name": "nextCromoId",
      "outputs": [
        {
          "internalType": "uint256",
          "name": "",
          "type": "uint256"
        }
      ],
      "stateMutability": "view",
      "type": "function",
      "constant": true
    },
    {
      "inputs": [],
      "name": "owner",
      "outputs": [
        {
          "internalType": "address",
          "name": "",
          "type": "address"
        }
      ],
      "stateMutability": "view",
      "type": "function",
      "constant": true
    },
    {
      "inputs": [],
      "name": "yoppenToken",
      "outputs": [
        {
          "internalType": "contract IERC20",
          "name": "",
          "type": "address"
        }
      ],
      "stateMutability": "view",
      "type": "function",
      "constant": true
    },
    {
      "inputs": [
        {
          "internalType": "string",
          "name": "_name",
          "type": "string"
        },
        {
          "internalType": "uint256",
          "name": "_price",
          "type": "uint256"
        }
      ],
      "name": "createCromo",
      "outputs": [],
      "stateMutability": "nonpayable",
      "type": "function"
    },
    {
      "inputs": [
        {
          "internalType": "uint256",
          "name": "_cromoId",
          "type": "uint256"
        }
      ],
      "name": "buyCromo",
      "outputs": [],
      "stateMutability": "nonpayable",
      "type": "function"
    },
    {
      "inputs": [
        {
          "internalType": "uint256",
          "name": "_cromoId",
          "type": "uint256"
        }
      ],
      "name": "getCromo",
      "outputs": [
        {
          "components": [
            {
              "internalType": "uint256",
              "name": "id",
              "type": "uint256"
            },
            {
              "internalType": "string",
              "name": "name",
              "type": "string"
            },
            {
              "internalType": "uint256",
              "name": "price",
              "type": "uint256"
            },
            {
              "internalType": "address",
              "name": "owner",
              "type": "address"
            }
          ],
          "internalType": "struct CromoMarket.Cromo",
          "name": "",
          "type": "tuple"
        }
      ],
      "stateMutability": "view",
      "type": "function",
      "constant": true
    }
  ],
  "bytecode": "0x608060405234801562000010575f80fd5b506040516200138a3803806200138a833981810160405281019062000036919062000121565b805f806101000a81548173ffffffffffffffffffffffffffffffffffffffff021916908373ffffffffffffffffffffffffffffffffffffffff1602179055503360015f6101000a81548173ffffffffffffffffffffffffffffffffffffffff021916908373ffffffffffffffffffffffffffffffffffffffff1602179055505062000151565b5f80fd5b5f73ffffffffffffffffffffffffffffffffffffffff82169050919050565b5f620000eb82620000c0565b9050919050565b620000fd81620000df565b811462000108575f80fd5b50565b5f815190506200011b81620000f2565b92915050565b5f60208284031215620001395762000138620000bc565b5b5f62000148848285016200010b565b91505092915050565b61122b806200015f5f395ff3fe608060405234801561000f575f80fd5b506004361061007b575f3560e01c80638da5cb5b116100595780638da5cb5b146100eb578063a1a3efc714610109578063e11c15e314610125578063f0ad4662146101585761007b565b806309a645f21461007f5780633fa36d9f1461009d57806377540568146100bb575b5f80fd5b610087610174565b60405161009491906107da565b60405180910390f35b6100a561017a565b6040516100b2919061086d565b60405180910390f35b6100d560048036038101906100d091906108c1565b61019d565b6040516100e29190610a05565b60405180910390f35b6100f36102c0565b6040516101009190610a34565b60405180910390f35b610123600480360381019061011e9190610b79565b6102e5565b005b61013f600480360381019061013a91906108c1565b61044c565b60405161014f9493929190610c1b565b60405180910390f35b610172600480360381019061016d91906108c1565b61051d565b005b60035481565b5f8054906101000a900473ffffffffffffffffffffffffffffffffffffffff1681565b6101a5610787565b60025f8381526020019081526020015f206040518060800160405290815f82015481526020016001820180546101da90610c92565b80601f016020809104026020016040519081016040528092919081815260200182805461020690610c92565b80156102515780601f1061022857610100808354040283529160200191610251565b820191905f5260205f20905b81548152906001019060200180831161023457829003601f168201915b5050505050815260200160028201548152602001600382015f9054906101000a900473ffffffffffffffffffffffffffffffffffffffff1673ffffffffffffffffffffffffffffffffffffffff1673ffffffffffffffffffffffffffffffffffffffff16815250509050919050565b60015f9054906101000a900473ffffffffffffffffffffffffffffffffffffffff1681565b60015f9054906101000a900473ffffffffffffffffffffffffffffffffffffffff1673ffffffffffffffffffffffffffffffffffffffff163373ffffffffffffffffffffffffffffffffffffffff1614610374576040517f08c379a000000000000000000000000000000000000000000000000000000000815260040161036b90610d0c565b60405180910390fd5b604051806080016040528060035481526020018381526020018281526020015f73ffffffffffffffffffffffffffffffffffffffff1681525060025f60035481526020019081526020015f205f820151815f015560208201518160010190816103dd9190610ebe565b50604082015181600201556060820151816003015f6101000a81548173ffffffffffffffffffffffffffffffffffffffff021916908373ffffffffffffffffffffffffffffffffffffffff16021790555090505060035f81548092919061044390610fba565b91905055505050565b6002602052805f5260405f205f91509050805f01549080600101805461047190610c92565b80601f016020809104026020016040519081016040528092919081815260200182805461049d90610c92565b80156104e85780601f106104bf576101008083540402835291602001916104e8565b820191905f5260205f20905b8154815290600101906020018083116104cb57829003601f168201915b505050505090806002015490806003015f9054906101000a900473ffffffffffffffffffffffffffffffffffffffff16905084565b5f60025f8381526020019081526020015f2090505f816002015411610577576040517f08c379a000000000000000000000000000000000000000000000000000000000815260040161056e9061104b565b60405180910390fd5b5f73ffffffffffffffffffffffffffffffffffffffff16816003015f9054906101000a900473ffffffffffffffffffffffffffffffffffffffff1673ffffffffffffffffffffffffffffffffffffffff1614610608576040517f08c379a00000000000000000000000000000000000000000000000000000000081526004016105ff906110b3565b60405180910390fd5b5f8054906101000a900473ffffffffffffffffffffffffffffffffffffffff1673ffffffffffffffffffffffffffffffffffffffff166323b872dd3360015f9054906101000a900473ffffffffffffffffffffffffffffffffffffffff1684600201546040518463ffffffff1660e01b8152600401610689939291906110d1565b6020604051808303815f875af11580156106a5573d5f803e3d5ffd5b505050506040513d601f19601f820116820180604052508101906106c9919061113b565b610708576040517f08c379a00000000000000000000000000000000000000000000000000000000081526004016106ff906111b0565b60405180910390fd5b33816003015f6101000a81548173ffffffffffffffffffffffffffffffffffffffff021916908373ffffffffffffffffffffffffffffffffffffffff1602179055507f64121c091d212cc0d09c5d2fdc983461417ce2de95c18222bbb006564e9d31c5823360405161077b9291906111ce565b60405180910390a15050565b60405180608001604052805f8152602001606081526020015f81526020015f73ffffffffffffffffffffffffffffffffffffffff1681525090565b5f819050919050565b6107d4816107c2565b82525050565b5f6020820190506107ed5f8301846107cb565b92915050565b5f73ffffffffffffffffffffffffffffffffffffffff82169050919050565b5f819050919050565b5f61083561083061082b846107f3565b610812565b6107f3565b9050919050565b5f6108468261081b565b9050919050565b5f6108578261083c565b9050919050565b6108678161084d565b82525050565b5f6020820190506108805f83018461085e565b92915050565b5f604051905090565b5f80fd5b5f80fd5b6108a0816107c2565b81146108aa575f80fd5b50565b5f813590506108bb81610897565b92915050565b5f602082840312156108d6576108d561088f565b5b5f6108e3848285016108ad565b91505092915050565b6108f5816107c2565b82525050565b5f81519050919050565b5f82825260208201905092915050565b5f5b83811015610932578082015181840152602081019050610917565b5f8484015250505050565b5f601f19601f8301169050919050565b5f610957826108fb565b6109618185610905565b9350610971818560208601610915565b61097a8161093d565b840191505092915050565b5f61098f826107f3565b9050919050565b61099f81610985565b82525050565b5f608083015f8301516109ba5f8601826108ec565b50602083015184820360208601526109d2828261094d565b91505060408301516109e760408601826108ec565b5060608301516109fa6060860182610996565b508091505092915050565b5f6020820190508181035f830152610a1d81846109a5565b905092915050565b610a2e81610985565b82525050565b5f602082019050610a475f830184610a25565b92915050565b5f80fd5b5f80fd5b7f4e487b71000000000000000000000000000000000000000000000000000000005f52604160045260245ffd5b610a8b8261093d565b810181811067ffffffffffffffff82111715610aaa57610aa9610a55565b5b80604052505050565b5f610abc610886565b9050610ac88282610a82565b919050565b5f67ffffffffffffffff821115610ae757610ae6610a55565b5b610af08261093d565b9050602081019050919050565b828183375f83830152505050565b5f610b1d610b1884610acd565b610ab3565b905082815260208101848484011115610b3957610b38610a51565b5b610b44848285610afd565b509392505050565b5f82601f830112610b6057610b5f610a4d565b5b8135610b70848260208601610b0b565b91505092915050565b5f8060408385031215610b8f57610b8e61088f565b5b5f83013567ffffffffffffffff811115610bac57610bab610893565b5b610bb885828601610b4c565b9250506020610bc9858286016108ad565b9150509250929050565b5f82825260208201905092915050565b5f610bed826108fb565b610bf78185610bd3565b9350610c07818560208601610915565b610c108161093d565b840191505092915050565b5f608082019050610c2e5f8301876107cb565b8181036020830152610c408186610be3565b9050610c4f60408301856107cb565b610c5c6060830184610a25565b95945050505050565b7f4e487b71000000000000000000000000000000000000000000000000000000005f52602260045260245ffd5b5f6002820490506001821680610ca957607f821691505b602082108103610cbc57610cbb610c65565b5b50919050565b7f4f6e6c79206f776e65722063616e206372656174652063726f6d6f73000000005f82015250565b5f610cf6601c83610bd3565b9150610d0182610cc2565b602082019050919050565b5f6020820190508181035f830152610d2381610cea565b9050919050565b5f819050815f5260205f209050919050565b5f6020601f8301049050919050565b5f82821b905092915050565b5f60088302610d867fffffffffffffffffffffffffffffffffffffffffffffffffffffffffffffffff82610d4b565b610d908683610d4b565b95508019841693508086168417925050509392505050565b5f610dc2610dbd610db8846107c2565b610812565b6107c2565b9050919050565b5f819050919050565b610ddb83610da8565b610def610de782610dc9565b848454610d57565b825550505050565b5f90565b610e03610df7565b610e0e818484610dd2565b505050565b5b81811015610e3157610e265f82610dfb565b600181019050610e14565b5050565b601f821115610e7657610e4781610d2a565b610e5084610d3c565b81016020851015610e5f578190505b610e73610e6b85610d3c565b830182610e13565b50505b505050565b5f82821c905092915050565b5f610e965f1984600802610e7b565b1980831691505092915050565b5f610eae8383610e87565b9150826002028217905092915050565b610ec7826108fb565b67ffffffffffffffff811115610ee057610edf610a55565b5b610eea8254610c92565b610ef5828285610e35565b5f60209050601f831160018114610f26575f8415610f14578287015190505b610f1e8582610ea3565b865550610f85565b601f198416610f3486610d2a565b5f5b82811015610f5b57848901518255600182019150602085019450602081019050610f36565b86831015610f785784890151610f74601f891682610e87565b8355505b6001600288020188555050505b505050505050565b7f4e487b71000000000000000000000000000000000000000000000000000000005f52601160045260245ffd5b5f610fc4826107c2565b91507fffffffffffffffffffffffffffffffffffffffffffffffffffffffffffffffff8203610ff657610ff5610f8d565b5b600182019050919050565b7f43726f6d6f20646f6573206e6f742065786973740000000000000000000000005f82015250565b5f611035601483610bd3565b915061104082611001565b602082019050919050565b5f6020820190508181035f83015261106281611029565b9050919050565b7f43726f6d6f20616c726561647920736f6c6400000000000000000000000000005f82015250565b5f61109d601283610bd3565b91506110a882611069565b602082019050919050565b5f6020820190508181035f8301526110ca81611091565b9050919050565b5f6060820190506110e45f830186610a25565b6110f16020830185610a25565b6110fe60408301846107cb565b949350505050565b5f8115159050919050565b61111a81611106565b8114611124575f80fd5b50565b5f8151905061113581611111565b92915050565b5f602082840312156111505761114f61088f565b5b5f61115d84828501611127565b91505092915050565b7f546f6b656e207472616e73666572206661696c656400000000000000000000005f82015250565b5f61119a601583610bd3565b91506111a582611166565b602082019050919050565b5f6020820190508181035f8301526111c78161118e565b9050919050565b5f6040820190506111e15f8301856107cb565b6111ee6020830184610a25565b939250505056fea26469706673582212206045b7957d3c87f4d723feed1aa05f8fb6f3fab13812b42e7cc002a90e29e3b264736f6c63430008140033",
  "immutableReferences": {},
  "source": "// SPDX-License-Identifier: MIT\npragma solidity ^0.8.20;\n\nimport \"@openzeppelin/contracts/token/ERC20/IERC20.sol\";\n\ncontract CromoMarket {\n    IERC20 public yoppenToken;\n    address public owner;\n\n    struct Cromo {\n        uint id;\n        string name;\n        uint price;\n        address owner;\n    }\n\n    mapping(uint => Cromo) public cromos;\n    uint public nextCromoId;\n\n    event CromoPurchased(uint cromoId, address buyer);\n\n    constructor(address _yoppenTokenAddress) {\n        yoppenToken = IERC20(_yoppenTokenAddress);\n        owner = msg.sender;\n    }\n\n    function createCromo(string memory _name, uint _price) external {\n        require(msg.sender == owner, \"Only owner can create cromos\");\n        cromos[nextCromoId] = Cromo(nextCromoId, _name, _price, address(0));\n        nextCromoId++;\n    }\n\n    function buyCromo(uint _cromoId) external {\n        Cromo storage cromo = cromos[_cromoId];\n        require(cromo.price > 0, \"Cromo does not exist\");\n        require(cromo.owner == address(0), \"Cromo already sold\");\n        require(yoppenToken.transferFrom(msg.sender, owner, cromo.price), \"Token transfer failed\");\n\n        cromo.owner = msg.sender;\n        emit CromoPurchased(_cromoId, msg.sender);\n    }\n\n    function getCromo(uint _cromoId) external view returns (Cromo memory) {\n        return cromos[_cromoId];\n    }\n}\n",
  "sourcePath": "/home/ubuntu/Documents/GitHub/cromo-market-yoppen/contracts/CromoMarket.sol",
  "compiler": {
    "name": "solc",
    "version": "0.8.20+commit.a1b79de6.Emscripten.clang"
  },
  "schemaVersion": "3.4.16",
  "updatedAt": "2024-06-24T02:44:26.142Z",
  "networkType": "ethereum",
  "devdoc": {
    "kind": "dev",
    "methods": {},
    "version": 1
  },
  "userdoc": {
    "kind": "user",
    "methods": {},
    "version": 1
  }
}